:020000040800F2
:10000000786500209D0100084D02000845020008A7
:10001000490200083D0200089504000800000000A5
:10002000000000000000000000000000C102000805
:10003000410200080000000051020008B50100085C
:10004000B7010008B7010008B7010008B7010008B0
:10005000B7010008B7010008B7010008B7010008A0
:10006000B7010008B7010008B7010008B701000890
:10007000B7010008B7010008B7010008B701000880
:10008000B7010008B7010008B7010008B701000870
:10009000B7010008B7010008B7010008B701000860
:1000A000B7010008B7010008B7010008B701000850
:1000B000B7010008B7010008B7010008B701000840
:1000C000B7010008B7010008B7010008B701000830
:1000D000B70100083D040008B7010008B701000897
:1000E000B7010008B7010008B7010008B701000810
:1000F000B7010008B7010008B7010008B701000800
:10010000B7010008B7010008B7010008B7010008EF
:10011000B7010008B7010008B7010008B7010008DF
:10012000B7010008B7010008B7010008B7010008CF
:10013000B7010008B7010008B7010008B7010008BF
:10014000B7010008B7010008B7010008B7010008AF
:10015000B7010008B7010008B7010008B70100089F
:10016000B7010008B7010008B7010008B70100088F
:10017000B7010008B7010008B7010008000000003F
:10018000B7010008B7010008DFF80CD000F03CF818
:1001900000480047A9060008786500200648804707
:1001A00006480047FEE7FEE7FEE7FEE7FEE7FEE75C
:1001B000FEE7FEE7FEE7FEE7E5020008890100082A
:1001C00040EA01039B0703D009E008C9121F08C0D9
:1001D000042AFAD203E011F8013B00F8013B521E59
:1001E000F9D27047D2B201E000F8012B491EFBD2D0
:1001F00070470022F6E710B513460A460446194632
:10020000FFF7F0FF204610BD1CB5094800900948D3
:1002100001900546009C06E0E06840F0010394E888
:10022000070098471034AC42F6D3FFF7B1FF000047
:10023000302100085021000800F0C6B9FEE7000098
:10024000FEE70000FEE70000FEE70000FEE700001A
:10025000EFF30980BFF36F8F154B1A681EF0100F74
:1002600008BF20ED108A20E9F04F10602DE9090049
:100270004FF0500080F31188BFF34F8FBFF36F8FA3
:1002800001F0E8F94FF0000080F31188BDE80900A3
:1002900019680868B0E8F04F1EF0100F08BFB0EC06
:1002A000108A80F30988BFF36F8F704700BF00BFCB
:1002B000140000200000000000000000000000000A
:1002C000074B19680868B0E8F04F80F30988BFF35E
:1002D0006F8F4FF0000080F31188704700BF00BFA0
:1002E0001400002081B04EF68851CEF200010A6859
:1002F00043F6080042F47002C4F202000A6050F8AB
:10030000081C41F0010140F8081C00BF50F8081C0F
:100310008907FBD5016841F080010160002100914F
:10032000009A4F2A06D800BF009A01320092009A24
:10033000502AF9D3026842F09002026000910099BD
:100340004F2905D800990131009100995029F9D31E
:1003500001684FF6FF7221F00301016050F8081C9C
:10036000CFF6F662114040F8081C50F8081C21F442
:10037000802140F8081C00210160026843F210024D
:10038000C2F2004240F8042C416050F8081C41F4CD
:10039000803140F8081C4FF6FF7100BF50F8082C60
:1003A000920303D40029A1F10101F7D150F8081CF0
:1003B0008903FBD5826B47F2000142F08052C4F200
:1003C000000182630A6842F440420A6002680260E7
:1003D000026842F400420260026842F4A0520260E5
:1003E00045F20842C0F2407240F8042C50F8082C44
:1003F00042F0807240F8082C50F8082C9201FBD58E
:100400000A6842F480320A604A68D203FCD50A685E
:1004100042F400320A6000BF4A689203FCD50168CA
:1004200021F003010160016841F00201016000BF99
:1004300001680907FCD501B07047000070B541F2B2
:10044000000440F20535C4F20104C0F2050520465F
:10045000294600F019FE40F28C460128C2F200063F
:1004600009D12046294600F003FE204600F07AFD1F
:10047000308801303080A5F10111204600F004FEE3
:10048000012818BF70BD204600F06CFD00203080B0
:1004900070BD0000FEE70000B0B541F20005C4F2F7
:1004A00001050446C1B2284600F060FD2846072138
:1004B00000F0CAFD0028F9D02046B0BDF0B5D0F854
:1004C00020E0D0F824C000230F27002505E000BF5E
:1004D0000135082D03F104030CD022FA05F6F607C6
:1004E000F6D007FA03F62EEA060601FA03F446EA06
:1004F000040EEDE7082300240F2504E00133102B40
:1005000004F104040CD022FA03F6F607F6D005FA3B
:1005100004F62CEA060701FA04F647EA060CEDE7B2
:10052000C0F820E0C0F824C0F0BD00002DE9F04183
:10053000D0F800E0D0F80CC000244FF003080026EB
:1005400005E000BF0136102E04F1020412D023FA98
:1005500006F7FF07F6D008FA04F72EEA070E01FAAD
:1005600004F54EEA050E2CEA070702FA04F547EAFD
:10057000050CE7E7C0F800E0C0F80CC0BDE8F0816A
:100580000129416814BF994319434160B0B5D0F8BF
:1005900008C000214FF0030E002404E00134102CA9
:1005A00001F102010CD023FA04F5ED07F6D00EFAA2
:1005B00001F52CEA050C02FA01F54CEA050CEDE711
:1005C000C0F808C0B0BD000000F06CB8B0B541F292
:1005D000041000F037FC4FF4406000F033FC41F2AF
:1005E0000004C4F2010404F57045284602210122EA
:1005F0004FF40073FFF79AFF2846002103224FF4BF
:100600000073FFF7BDFF284607214FF40072FFF784
:1006100055FF4FF4406000F015FC284602210122EE
:100620004FF48063FFF782FF2846002103224FF436
:100630008063FFF7A5FF284607214FF48062FFF78C
:100640003DFF204600F096FC20464FF4E13100F0DB
:1006500029FC2046002100F02BFD2046002100F05F
:1006600043FD2046002100F031FD2046082100F026
:1006700035FD2046042100F023FD204640F20531DF
:1006800000F0EAFC20464FF4417100F0E5FC252023
:100690000221002200F032F82046BDE8B04000F010
:1006A000CDBC0000FFF792BF82B04FF4407000F065
:1006B00079F80CA001F024FD42F24C5C41F27D502F
:1006C000C2F2000C4FF0020EC0F6000008A14FF479
:1006D00080720023CDE900EC01F056F900F06EFFC6
:1006E000FEE700BF4D43552073746172740D000026
:1006F0005461736B53746172740000004EF60C5CAD
:10070000CEF2000CDCF8003003F4E063B3F5E06FE8
:1007100001D1042322E0DCF8003003F4E063B3F5F8
:10072000C06F01D1032319E0DCF8003003F4E0636B
:10073000B3F5A06F01D1022310E0DCF8003003F420
:10074000E063B3F5806F01D1012307E0DCF80030EE
:1007500003F4E063B3F5407F1CD1002301FA03FCEE
:10076000C3F104030F21D94011404EF2001241EAB7
:100770000C01CEF20002090140EA020383F80013E3
:1007800000F01F01012303FA01F11C2303EAD0004A
:100790008150704740F20053C0F2FA53CCF8003059
:1007A000C9E7000040F080604EF60C5140F0FD704B
:1007B000CEF20001086070472DE9F04381B00E468B
:1007C00042F26451C2F200010D6840F21C01C2F213
:1007D0000001D1F8008040F2240140F21404C2F27A
:1007E0000001C2F20004D1F8009021680746081DFC
:1007F00000F082FC781C19D1C6B142F23450C2F22A
:100800000000D0E90012236801319A6093682768DC
:10081000FB602368976804337B602368043393602C
:1008200022680160506101B0BDE8F0832068ED19D5
:100830004560206800F1040105D3484601B0BDE8D9
:10084000F04300F08DBC404600F08AFC42F20050BC
:10085000C2F2000001688D4238BF056001B0BDE8FA
:10086000F083000042F2944540F22C0A4EF6045800
:1008700042F2505742F29046C2F20005C2F2000A1C
:10088000CEF200084FF08059C2F20007C2F2000613
:1008900015E000BF00F09AFCF868C468201D00F065
:1008A0002BFC30680138306028680138286000F07F
:1008B0009DFC206B00F0A8FC204600F0A5FC2868F9
:1008C0000028E7D1DAF800000228F8D3C8F8009031
:1008D000BFF34F8FBFF36F8FF1E700000848006848
:1008E000006880F308884FF0000080F3148862B637
:1008F00061B6BFF34F8FBFF36F8F00DF00BF000003
:1009000008ED00E02DE9F04381B040F21808C2F292
:100910000008D8F800200546D2680E46D46804F1D5
:100920000409484600F0E8FB94F8280041070CD47D
:1009300000F0FA0084F828001CE000BF711B81421F
:1009400010D3216A204688473D46A0692461471993
:10095000B7426760F2D9AE4201D2AF42F1D2D8F8C5
:10096000000004E040F22800C2F20000006849469E
:1009700000F0F6FB216A204601B0BDE8F0430847CD
:1009800081B0002000904FF0500080F31188BFF339
:100990006F8FBFF34F8F00BF00980028FCD001B0CD
:1009A0007047000084B040F2180440F2100940F291
:1009B000280A42F2685BC2F20004C2F20009C2F2E5
:1009C000000AC2F2000BE8462068076817B1C06849
:1009D000066800E0002600F035FE01F0D1F8D9F8F5
:1009E00000100546884209D22068016891B1C068AC
:1009F0004FF0FF310068FFF785FFF5E7C9F80050B9
:100A000097B1AE4210D801F0F3F930462946FFF70E
:100A100079FF25E0DAF80010CAF800002160C9F873
:100A2000005001F0E5F91BE00FB1002205E0DAF813
:100A300000000068B0FA80F04209DBF80000711B8A
:100A400000F04EFC01F0D4F950B94EF60450CEF24D
:100A500000004FF080510160BFF34F8FBFF36F8FE5
:100A60000021DBF800000391CDE90111009104E0C1
:100A7000206800F075FBDBF800004146002200F022
:100A8000ADFE0028A0D00098B0F1FF3F03DCDDE907
:100A900001200399904700980028ECD4029D6869D2
:100AA00010B1281D00F028FB01F06AF8D9F80010F9
:100AB000064688420FD200BF2068016831B1C06885
:100AC0004FF0FF310068FFF71DFFF5E7DAF800107F
:100AD000CAF8000021600098C9F8006001380828B1
:100AE000C9D8DFE800F00505392360050539230082
:100AF00095F82800019BAA6940F0010185F82810AB
:100B0000D718294641F8047FB7422D6104D99E4287
:100B1000AED29F4203D2ABE7F31A934219D34307F5
:100B200021D400F0FA0085F8280050E095F828005C
:100B30002D6140F00101019885F82810821929469D
:100B400041F8042FB242A8613FF692AF00283FF46B
:100B500092AFDAF800008CE795F8280000F0FE006C
:100B600085F8280087E70198C146D846D3460F4646
:100B7000104406E0301A88421DD3296A2846884767
:100B80005046A9692D6101EB000AB245C5F804A0E1
:100B9000F0D9864201D28245EFD22068394600F072
:100BA000DFFADA460DE095F828008107D6D428460A
:100BB00000F02AFB5FE7DBF800003946DA4600F078
:100BC000CFFAC346C84640F21009C2F20009296AAA
:100BD000284688474FE70000F0B581B0044600F092
:100BE000F5FA94F94560012E0FDB04F1240500BFEE
:100BF000286850B1284601F093F8002818BF00F08B
:100C00007BFC70B2013E0128F2DCFF2684F84560CF
:100C100000F0ECFA00F0DAFA94F94470012F0EDBE0
:100C200004F11005286850B1284601F079F8002831
:100C300018BF00F061FC78B2013F0128F2DC84F8B3
:100C4000446001B0BDE8F04000F0D0BAB0B500F1AA
:100C50000805092D01D200250AE010F0070107D090
:100C600009398D429ABF20F0070000F110050025D8
:100C700000F0E8FC40F22001C2F20001086842F2F4
:100C8000F44CC2F2000C18BB40F28E40C2F20000DD
:100C9000C21D430700F5005318BF22F0070042F2BF
:100CA0002C52C2F200020024C2E9000423F0070221
:100CB000A2F108030B6042E902441A1A0B68CCF84F
:100CC0000020C0E9003242F2FC40C2F200000260A3
:100CD000012D4FF0000440DBDCF8000085423CD8D9
:100CE00042F22C50C2F2000003685C68AC4206D2AB
:100CF0001A6822B1546818461346AC42F8D3096802
:100D00008B4229D0D0F800E01A68641B112C0260D5
:100D100004D359194C605D605A51016042F2FC40A5
:100D20005968DCF80020C2F200000468521AA2429E
:100D3000CCF8002038BF026042F208525868C2F274
:100D40000002156840F0004000210EF10804C3E9DC
:100D50000010681C106000E0002401F049F82046F3
:100D6000B0BD0000034640F6811021F00101C0F63D
:100D700000004FF0807C03E903106FF00201A3F143
:100D8000440043E90912704710B543F60404C4F265
:100D900002046368C3F38103014642F20040C0F2DB
:100DA000F400DFE803F02102072141F20020C0F245
:100DB0007A0019E02268236802F03F0EC3F3881C12
:100DC00023682268C3F30143520241F20022C0F2B9
:100DD0007A0258BF0246B2FBFEF2022000EB43004B
:100DE00002FB0CF2B2FBF0F0626812A3C2F3031232
:100DF0009B5C626842F2241CC2F38222C0F6000CA3
:100E00001CF802E06268032911D820FA03F3DFE836
:100E100001F00D020407184610BD23FA0EF010BDB4
:100E2000C2F342301CF8000023FA00F010BD00208D
:100E300010BD00BF0000000000000000010203041C
:100E40000607080943F6000300F01F018009C4F2F9
:100E500002034FF0010CC2580CFA01F11143C150CA
:100E60007047000043F6000300F01F018009C4F240
:100E700002034FF0010CC2580CFA01F122EA010101
:100E8000C150704743F6000300F01F018009C4F20F
:100E900002034FF0010CC2580CFA01F11143C1508A
:100EA00070470000B0B5044647F2FF70C4F200007E
:100EB0000D4684424FF000000EDC44F6FF31C4F2D0
:100EC00000018C4217DC44F20041C4F200018C4264
:100ED0001DD044F6000116E040F6FF71C4F2010196
:100EE0008C422FDC47F60001C4F200018C420ED088
:100EF00047F6004107E044F60041C4F200018C428D
:100F000005D045F20001C4F200018C4203D1022158
:100F10000846FFF739FFE168090406D400EB5500E5
:100F2000B0FBF5F080B2A060B0BD400000EB550012
:100F3000B0FBF5F04FF6F0710140C0F342000844F9
:100F4000A060B0BD41F20001C4F201018C424FF03B
:100F50000301DDD041F20042C4F201029442D7D035
:100F6000D9E7000040686FF35F2070476FF35F219F
:100F70004160704710B547F2FF71C4F2000188422A
:100F800014DC44F6FF31C4F20001884224DC44F250
:100F90000041C4F2000188423CD044F60001C4F292
:100FA0000001884249D140F612043EE040F6FF714C
:100FB000C4F2010188421EDC47F60001C4F20001C0
:100FC00088422AD047F60041C4F20001884218BF87
:100FD00010BD40F61F0428E044F60041C4F20001B1
:100FE00088421DD045F20001C4F20001884224D19C
:100FF00040F6140419E041F20001C4F201018842F4
:1010000011D041F20041C4F20101884215D140F6ED
:1010100005140AE040F6110407E040F61E0404E05F
:1010200040F6130401E040F604142046FFF72AFFBF
:101030002046BDE81040FFF715BF10BDC16841F460
:101040000051C160704700008A09105801F01F016B
:10105000C84000F00100704701F01F0289094FF0FD
:10106000010C0B580CFA02F21A430A5070470000A8
:10107000C1F30442890D4FF0010C0B580CFA02F237
:1010800023EA02020A507047C1F3891252F800C0E5
:1010900001F01F0301229A408B0D1858C1F304413F
:1010A00012EA0C0220FA01F018BF0122104070472A
:1010B000C26822F4C062C260C2681143C160704756
:1010C000C26822F004021143C1607047026922F431
:1010D000405202610269114301617047C26822F007
:1010E00008021143C1607047C26822F48052C26096
:1010F000C2681143C1607047D0E9013201699A604A
:10110000D1F804C082688445536008BF4A600B6808
:1011100000220261581E08607047000001A000F024
:1011200065BF00BF537461636B206F766572666C38
:101130006F7720696E207461736B2025730D0A0030
:101140004FF0FF31024642F8081F0021C0E9032298
:10115000C0E90012704700000021016170470000E3
:1011600080B5D1F800C01CF1010207D000F10803DE
:101170009E465B681A686245FAD901E0D0F810E033
:10118000DEF8042008614A6091600268C1F808E056
:10119000CEF80410511C016080BD0000D0E900C3EE
:1011A00008619A684B608A609A68996051600CF196
:1011B0000101016070470000DFF80C00016841F494
:1011C000700101607047000088ED00E04FF05000B2
:1011D00080F31188BFF36F8FBFF34F8F40F2080089
:1011E000C2F20000016801310160704740F208005E
:1011F000C2F2000001680139016018BF7047002089
:1012000080F3118870470000B0B520B150F8041C7D
:10121000B1F1FF3F00DDB0BDA0F108042268002A53
:1012200018BFB0BD21F0004140F8041C054600F095
:1012300009FA42F2F441C2F2000155F8040C0B68BD
:101240002A461844086042F22C51C2F2000100BF45
:1012500008460968A142FBD34368C518A54204D1DA
:1012600052F8042C04461A4442606368E2188A4229
:1012700001D00A460AE040F22002C2F200021268DF
:10128000914203D0D1E9002119446160A04222605B
:1012900018BF046042F20C50C2F200000168013134
:1012A0000160BDE8B04000F0A3BD00004EF21000A8
:1012B000CEF2000000210160816040F20401C2F220
:1012C0000001096844F6D352C1F26202A1FB021286
:1012D0004FF0FF3101EB921141600721016070472F
:1012E00070B515460E460446FFF770FF94F84400AB
:1012F000FF2804BF002084F8440094F84500FF282C
:1013000004BF002084F84500FFF770FFA06B28B9E8
:1013100004F1240031462A4600F006F92046BDE8D3
:101320007040FFF759BC000004A400BF204600F045
:10133000E7FE4FF47A7000F00BF8F7E75461736B37
:10134000312069732072756E6E696E670D00000042
:101350002DE9F041D8B3044642F29840C2F20000B1
:10136000016840F214050131016042F26450C2F29A
:101370000000076840F21C00C2F20000D0F80080B4
:1013800040F22400C2F20000C2F20005066828689C
:101390000430FFF7B1FE2868E4194460286800F1C2
:1013A000040103D33046FFF7DBFE0AE04046FFF7B7
:1013B000D7FE42F20050C2F2000001688C4238BFF2
:1013C000046000F015FD002818BFBDE8F0814EF65E
:1013D0000450CEF200004FF080510160BFF34F8FF8
:1013E000BFF36F8FBDE8F0812DE9F0410446FFF7B0
:1013F000EDFE40F21408002CC2F2000808BFD8F835
:101400000040251D2846FFF777FEA06A18B104F1B9
:101410001800FFF771FE42F29C40C2F20000016822
:1014200042F2285701310160D8F80000C2F20007EB
:10143000201AB0FA80F039684009002918BF01214C
:1014400001EA0006012E0DD142F25050C2F2000016
:101450002946FFF7A3FE42F29440C2F20000016861
:1014600001311CE042F29040C2F2000001680139F3
:10147000016040F21C00C2F200000168096841B13D
:10148000006842F20051C068C2F2000100680860C2
:1014900006E042F20050C2F200004FF0FF3101605E
:1014A000FFF7A4FE2EB9206BFFF7AEFE2046FFF734
:1014B000ABFE386880B1D8F80000844218BFBDE8A0
:1014C000F0814EF60450CEF200004FF080510160E2
:1014D000BFF34F8FBFF36F8FBDE8F08142F204512D
:1014E000C2F200010968016042F26451C2F20001D7
:1014F000096841607047000042F27050C2F200007B
:10150000012101607047000010B50C4640F2140143
:10151000C2F2000109681831FFF722FE20460121BE
:10152000BDE81040FFF748B9B0B540F2140EC2F262
:10153000000E0346D0E900C0DEF80040002AE0615A
:101540008468DEF800502C62DEF80040856804F103
:1015500018046C60DEF8004004F118048460DEF8C2
:1015600000500846AB620CF1010518BF4FF0FF3088
:1015700011461D60BDE8B040FFF71EB980B582B0CE
:10158000FEF75AFE42F2485C41F22930C2F2000CEA
:101590004FF0010EC0F6000006A14FF48072002348
:1015A000CDE900EC00F0F0F9002002B0BDE8804089
:1015B000FFF71ABF5461736B3100000080B586B02D
:1015C00044F24940C4F24C50029042F2F84E40F6C8
:1015D00065004FF0000CC2F2000EC0F6000002A938
:1015E000802200238DF80CC0CDE900CE00F0CCF9AC
:1015F000012820D100F0B4FC01281CD14FF050008C
:1016000080F31188BFF36F8FBFF34F8F42F200500A
:10161000C2F200004FF0FF31016042F22850C2F2E6
:1016200000000121016042F26450C2F2000000217A
:10163000016000F059F842F22C10C0F6000000687A
:1016400006B080BD42F29840C2F20000016801314C
:101650000160704742F29840C2F20000006830B169
:1016600042F27050C2F2000001210160704710B5D3
:1016700042F27050C2F20000002140F214040160F6
:10168000C2F20004206800682168096B884204D80F
:10169000216820683431FFF741FD42F2A040C2F2D8
:1016A0000000026840F22C03511C02EB8202C2F2DD
:1016B000000303EB82021C3252F81C3C0139002B60
:1016C000A2F11402F8D052F8043C5B689A4242F846
:1016D000043C02D1536842F8043C52F8042CD2680E
:1016E00022600160206810BDB0B582B04EF6205473
:1016F000CEF200042068002540F47F0020602068BE
:1017000040F07F40206044F8045CFFF7CFFD40F2DA
:101710000800C2F200000560FFF74EFDD4F8140285
:1017200040F04040C4F81402FFF7D8F8FFF792FFEA
:1017300001954FF0500080F31188BFF36F8FBFF316
:101740004F8F00BF01980028FCD0002002B0B0BD30
:10175000002804BF0020704770B5A0FB0136DEBB37
:1017600001FB00F313F1510F36D8054603F1500089
:101770000E461446FFF76AFA014600284FF00000B3
:1017800008BF70BD0846002E18BF50300860C1E980
:101790000F560D460026FFF719FD2868D5E90F12F0
:1017A000AE6302FB0103013901FB0201C5E901033C
:1017B000FF20E96085F8440085F8450005F1100038
:1017C000FFF7BEFC05F12400FFF7BAFCFFF70EFDA2
:1017D000284685F84C4070BD002070BD2DE9F04FC3
:1017E00085B0054600F1100A243002AF0DF1100952
:1017F0004FF000080191049200900CE02846FFF79A
:10180000EBF900F0F5FAFFF7E1FCAC6BFFF7EEFC4B
:10181000002C00F08480FFF7D9FCD5F838B0BBF17C
:10182000000F27D02A6C5AB1D5E902011144E960B2
:10183000814224BF2868E860E9680198FEF7C0FC8F
:10184000ABF10100A863286970B1504600F068FA56
:1018500050B14EF60450CEF200004FF080510160BE
:10186000BFF34F8FBFF36F8FFFF7C0FC002001263F
:10187000A0B955E0049850B1B8F1000F02D1384634
:10188000FFF72CFE4FF00108012038B948E0FFF7C0
:10189000ADFC00260020002842D000BFFFF7A6FCC8
:1018A000FFF7D0FEFFF792FC95F84400FF2804BF35
:1018B000002085F8440095F84500FF2804BF00206B
:1018C00085F84500FFF792FC3846494600F02CF8B1
:1018D00000287FF493AFFFF779FCAC6BFFF786FC31
:1018E0002CB12846FFF778F900F082FA93E70499C3
:1018F0000098FFF709FE2846FFF76EF900F078FA26
:1019000000287FF488AF4EF60450CEF200004FF06E
:1019100080510160BFF34F8FBFF36F8F7BE70026CD
:10192000304605B0BDE8F08F70B50C460546FFF7B0
:101930004DFC42F2645EC2F2000EDEF80030216817
:101940004A1C1CD042F2045CC2F2000CD5E9000231
:10195000DCF80060864201D093420CD29A1A914280
:1019600009D9881A2060DCF8000000242860DEF81D
:101970000000686004E000202060012400E00024F2
:10198000FFF734FC204670BD2DE9F04F81B0970081
:1019900081463846984692460D46FFF757F970B192
:1019A00006465C20FFF752F930B15C210446FEF791
:1019B00020FC266334B968E03046FFF725FC00249C
:1019C000002C62D0206BDDF828B03946A522FEF746
:1019D00009FC206B00EB8A00A0F1040020F0070650
:1019E0006DB104F1340000216A5C42546A5C1AB1A2
:1019F0000F2901F10101F7D1002084F84300251DD2
:101A00002846BBF1370F28BF4FF0370BC4F82CB076
:101A1000C4F84CB0FFF7A0FB04F11800FFF79CFBE3
:101A2000CBF13800A06130464946424624616462E9
:101A3000FFF798F90B992060002918BF0C6024B3B8
:101A4000FFF7C4FB42F29040C2F20000016840F28E
:101A5000140B01310160C2F2000BDBF8001042F2FE
:101A6000285A40F22C07C2F2000AC2F2000789B1DC
:101A7000DAF80000002846D1DBF80000E16AC06A0D
:101A8000884298BFCBF800403DE04FF0FF3001B0F6
:101A9000BDE8F08FCBF800400068012833D1002664
:101AA000B819FFF74DFB1436B6F58C6FF8D142F23A
:101AB000CC48C2F200084046FFF742FB42F2E04940
:101AC000C2F200094846FFF73BFB42F21450C2F253
:101AD0000000FFF735FB42F25050C2F20000FFF762
:101AE0002FFB42F23450C2F20000FFF729FB40F214
:101AF0001C00C2F20000C0F8008040F22400C2F2D4
:101B00000000C0F8009042F29C40C2F20000016860
:101B100001310160616442F2A041C2F20001E06A59
:101B20000A68904288BF086000EB800007EB8001E4
:101B30004A6861619368A260E3609368956057F8B2
:101B400020205D60511C47F82010FFF74FFBDAF8AA
:101B5000000080B1DBF80000E16AC06A88420AD266
:101B60004EF60450CEF200004FF080510160BFF3FA
:101B70004F8FBFF36F8F012001B0BDE8F08F0000E1
:101B800042F26450C2F200000068704742F298408E
:101B9000C2F20000006840B142F21050C2F20000F0
:101BA000016801310160002070472DE9F04F42F2D9
:101BB0006450C2F20000016842F2005211F1010BC0
:101BC000C2F20002C0F800B01CD340F21C0040F288
:101BD0002403C2F20000C2F2000301681F6807601C
:101BE000196042F20451C2F200010B6801330B602C
:101BF0000168096819B10068C068006801E04FF029
:101C0000FF301060106840F2140C40F22C0E834537
:101C1000C2F2000CC2F2000E01D200206BE040F2D2
:101C20001C0AC2F2000ADAF800004FF0000900684E
:101C3000002855D042F2A048C2F20008002021E05E
:101C4000F56AD8F800108D4205EB850188BFC8F809
:101C500000500EEB810254687261A368B460F360B7
:101C6000A368A7605F605EF821305A1C4EF82120FF
:101C7000DCF80010C96ADAF800208D4288BF012024
:101C8000116889B3DAF80040E468E668374657F827
:101C9000044FA3452AD3D6E9021574698D606268A2
:101CA000F568BA42696008BF65602168B56A0139A4
:101CB000002DC6F814902160C2D0D6E90712634601
:101CC0008A606A68346A06F1180C6245616008BF70
:101CD0006C6029689C460139C6F828902960AFE7F6
:101CE0004FF0FF34002005E04FF0FF3442F2005285
:101CF000C2F200021460DCF80010C96A01EB810135
:101D00005EF82110012942F27051C2F2000188BF31
:101D100001200968002918BF0120BDE8F08F0000EC
:101D200080B5C068C068D0E90713826A8B60D2F8BA
:101D300004E0036A00F1180CE645596008BF5360DF
:101D4000136800218162591E116042F29841C2F26B
:101D50000001096849B142F21452C2F2000251680E
:101D600082628B68C161036227E0D0E90213426995
:101D70008B60D2F804E0C36800F1040CE6455960BA
:101D800008BF5360136800214161591E42F2A0430D
:101D90001160C2F20003C26A19688A4288BF1A60E1
:101DA00002EB820140F22C02C2F2000202EB81023D
:101DB000516842618B688160C3608B68C1F808C05C
:101DC000C3F804C01168C06A0131116040F2140107
:101DD000C2F200010968C96A884291BF002042F23C
:101DE0007051C2F20001012088BF086080BD000070
:101DF0002DE9F04F81B0FFF7E9F942F29840C2F2C5
:101E00000000016801390160006830B10024FFF76B
:101E1000EDF9204601B0BDE8F08F42F29040C2F2E9
:101E2000000000680028F1D042F2145AC2F2000A01
:101E3000DAF8001042F2705940F214080029C2F298
:101E40000009C2F2000865D042F2A04E40F22C0315
:101E50004FF0000BC2F2000EC2F200034FF0010C73
:101E6000DAF80C70FC68D4E90726A76A96607868EF
:101E7000266A04F11805A842726008BF7E603868BF
:101E8000C4F828B001383860D4E90202676982607A
:101E90007A68E568261DB242686008BF7D603868D0
:101EA000C4F814B001383860E76ADEF800008742F1
:101EB00007EB870088BFCEF8007003EB80025568FF
:101EC0006261A968A560E160A968AE604E6053F8E0
:101ED0002010013143F82010D8F80000C06A874272
:101EE00088BFC9F800C0DAF800000028B8D18CB16A
:101EF00040F21C00C2F200000168096819B10068D4
:101F0000C068006801E04FF0FF3042F20051C2F2B9
:101F10000001086042F21054C2F2000426685EB16B
:101F2000012700BFFFF732FE002818BFC9F8007074
:101F3000013EF7D100202060D9F8000000283FF4CE
:101F400065AFD8F800004EF60450CEF200004FF016
:101F500080510160BFF34F8F0124BFF36F8F56E7AD
:101F600070B582B0FFF732F942F26856C2F200064D
:101F70003068E8B942F2A444C2F200042046FFF7F8
:101F8000DFF842F2B845C2F200052846FFF7D8F85C
:101F900040F21800C2F20000046040F22800C2F2D1
:101FA00000000560052010210022FFF7D1FB306002
:101FB000FFF71CF9306888B142F26C5640F6A51064
:101FC000C2F200062825C0F6000006A15022002318
:101FD000CDE90056FFF7D8FC02B070BD002002B07A
:101FE00070BD00BF546D7220537663000FB4054B73
:101FF00010B503A9044A029800F017F810BC5DF868
:1020000014FB0000990400080000002002E008C84A
:10201000121F08C1002AFAD170477047002001E062
:1020200001C1121F002AFBD170472DE9F84F9946D4
:10203000924688460546002706E025280AD05146E4
:102040004A4690476D1C7F1C28780028F5D13846F9
:10205000BDE8F88F002315F8011F18462E2915D169
:1020600015F8011F04232A290DD06FF02F022978BB
:10207000A1F13004092C09D800EB800002EB4000EC
:1020800008446D1CF3E758F8040B6D1C2A78002AED
:10209000DDD0632A07D0732A0FD0104651464A4636
:1020A00090477F1C2AE018F8042B8DF800200021AF
:1020B0008DF801106E46012103E058F8046B4FF0D3
:1020C000FF315A074FF0000401D409E0641C844238
:1020D0000BDA8C42FADB325D002AF7D105E0641C92
:1020E0008C42FCDB305D0028F9D1274404E016F86F
:1020F000010B51464A469047641EF8D26D1CA3E777
:1021000010B5044601E0FEF7C7F914F8010B0449C5
:102110000028F8D1BDE810400A20FEF7BDB9000044
:10212000000000200000000001020304370000004E
:102130005021000800000020100000000C200008C2
:102140006021000810000020686500001C200008C5
:1021500000000000007A030AAAAAAAAA0000000050
:040000050800018965
:00000001FF
